{
  "_format": "hh-sol-artifact-1",
  "contractName": "Counter",
  "sourceName": "contracts/Counter.sol",
  "abi": [
    {
      "inputs": [],
      "name": "count",
      "outputs": [
        {
          "internalType": "uint256",
          "name": "",
          "type": "uint256"
        }
      ],
      "stateMutability": "view",
      "type": "function"
    },
    {
      "inputs": [],
      "name": "n",
      "outputs": [
        {
          "internalType": "uint256",
          "name": "",
          "type": "uint256"
        }
      ],
      "stateMutability": "view",
      "type": "function"
    },
    {
      "inputs": [],
      "name": "set_n",
      "outputs": [],
      "stateMutability": "nonpayable",
      "type": "function"
    }
  ],
  "bytecode": "0x608060405234801561001057600080fd5b506101a0806100206000396000f3fe608060405234801561001057600080fd5b50600436106100405760003560e01c806259212b1461004557806306661abd1461004f5780632e52d6061461006d575b600080fd5b61004d61008b565b005b6100576100a2565b60405161006491906100c0565b60405180910390f35b6100756100ab565b60405161008291906100c0565b60405180910390f35b600160005461009a91906100db565b600081905550565b60008054905090565b60005481565b6100ba81610131565b82525050565b60006020820190506100d560008301846100b1565b92915050565b60006100e682610131565b91506100f183610131565b9250827fffffffffffffffffffffffffffffffffffffffffffffffffffffffffffffffff038211156101265761012561013b565b5b828201905092915050565b6000819050919050565b7f4e487b7100000000000000000000000000000000000000000000000000000000600052601160045260246000fdfea264697066735822122053f9e6d3f5ad608c4348ccb807133edcf728a5f2a23adde136ae8c51dc9268f364736f6c63430008040033",
  "linkReferences": {},
  "deployedLinkReferences": {}
}